:100000000C942A000C9447000C9447000C94470071
:100010000C9447000C9447000C9447000C94470044
:100020000C9447000C9447000C9447000C94470034
:100030000C9447000C9447000C9447000C94470024
:100040000C9447000C9447000C9447000C94470014
:100050000C94470011241FBECFE5D8E0DEBFCDBF12
:1000600010E0A0E6B0E0E6E1F5E002C005900D92F8
:10007000A03CB107D9F710E0A0ECB0E001C01D92A0
:10008000A43CB107E1F70E946B020C9489020C9426
:1000900000000895382F37708695869586958130B3
:1000A00009F1813030F08230B1F1833009F064C061
:1000B0004BC0613059F42BB381E090E002C0880F4F
:1000C000991F3A95E2F7282B2BBB08952BB381E0BB
:1000D00090E002C0880F991F3A95E2F7809582233D
:1000E0008BBB0895613059F428B381E090E002C0E1
:1000F000880F991F3A95E2F7282B28BB089528B35B
:1001000081E090E002C0880F991F3A95E2F7809550
:10011000822388BB0895613059F425B381E090E0D3
:1001200002C0880F991F3A95E2F7282B25BB089546
:1001300025B381E090E002C0880F991F3A95E2F75D
:100140008095822385BB0895613059F422B381E004
:1001500090E002C0880F991F3A95E2F7282B22BB46
:10016000089522B381E090E002C0880F991F3A956C
:10017000E2F78095822382BB0895813049F0813077
:1001800028F0823039F0833041F406C06BBB08950B
:1001900068BB089565BB089562BB0895E0E6F0E092
:1001A00041E050E080818823D1F4828191818130C7
:1001B00051F42AB3BA0102C0660F771F9A95E2F78D
:1001C000262B2ABB5FC02AB3BA0102C0660F771F75
:1001D0009A95E2F7CB01809582238ABB53C0813088
:1001E000D1F482819181813051F427B3BA0102C0E8
:1001F000660F771F9A95E2F7262B27BB43C027B3DC
:10020000BA0102C0660F771F9A95E2F7CB0180957D
:10021000822387BB37C08230D1F4828191818130C3
:1002200051F424B3BA0102C0660F771F9A95E2F722
:10023000262B24BB27C024B3BA0102C0660F771F48
:100240009A95E2F7CB018095822384BB1BC0833053
:10025000C9F482819181813051F421B3BA0102C085
:10026000660F771F9A95E2F7262B21BB0BC021B3AF
:10027000BA0102C0660F771F9A95E2F7CB0180950D
:10028000822381BB349670E0E03CF70709F08ACF07
:10029000089590BD89B988E18AB98EE880BD089536
:1002A0005D9BFECF8CB908955F9BFECF8CB1089506
:1002B0006F9A6C9A70986998689A81E58DB90895DB
:1002C0008FB9779BFECF08950F931F93082F89E076
:1002D00061E00E944A008AE060E00E944A00102F1C
:1002E00003FF03C087E061E002C087E060E00E9496
:1002F0004A0012FF03C086E061E002C086E060E0D1
:100300000E944A0011FF03C085E061E002C085E061
:1003100060E00E944A0010FF03C084E061E002C078
:1003200084E060E00E944A008BE061E00E944A00A5
:1003300085E38A95F1F78BE060E00E944A0080E255
:1003400093E00197F1F707FF03C087E061E002C087
:1003500087E060E00E944A0016FF03C086E061E08B
:1003600002C086E060E00E944A0015FF03C085E0FD
:1003700061E002C085E060E00E944A0014FF03C013
:1003800084E061E002C084E060E00E944A008BE00B
:1003900061E00E944A0085E38A95F1F78BE060E016
:1003A0000E944A0080E293E00197F1F71F910F91BC
:1003B00008951F93182F89E060E00E944A008AE0A8
:1003C00060E00E944A0017FF03C087E061E002C0BE
:1003D00087E060E00E944A0016FF03C086E061E00B
:1003E00002C086E060E00E944A0015FF03C085E07D
:1003F00061E002C085E060E00E944A0014FF03C093
:1004000084E061E002C084E060E00E944A008BE08A
:1004100061E00E944A0085E38A95F1F78BE060E095
:100420000E944A0080E293E00197F1F713FF03C0B6
:1004300087E061E002C087E060E00E944A0012FFAE
:1004400003C086E061E002C086E060E00E944A00EE
:1004500011FF03C085E061E002C085E060E00E941A
:100460004A0010FF03C084E061E002C084E060E065
:100470000E944A008BE061E00E944A0085E38A9571
:10048000F1F78BE060E00E944A0080E293E0019780
:10049000F1F71F9108958AE060E00E944A0088EC1D
:1004A00090E020E931E0F9013197F1F70197D9F7B0
:1004B00083E30E94D90182E30E94D90188E20E946D
:1004C000D9018FE00E94D90186E00E94D90181E024
:1004D0000E94D90108950E94CE0080E895E20E9412
:1004E00049010E9454018134E1F782E10E944900F0
:1004F00060E0813009F061E082E10E944A00F1CFC2
:1005000082E161E00E944A0087E161E00E944A00C6
:060510000895F894FFCFEE
:1005160000000100000100000002010000030100CC
:1005260000040100000501000006010000070100AB
:1005360001010100010201000103010001040101A2
:100546000105010101060000010701010202010087
:100556000203010002040100020501000206010077
:100566000207010003030100030401000305010063
:00000001FF
